S0100000757362325F6869642E7372656304
S11300000C94A5000C94C1000C94C1000C94C10084
S11300100C94C1000C94C1000C94C1000C94C10058
S11300200C94C1000C94C1000C94C1000C948F0674
S11300300C94C1000C94C1000C94C1000C94C10038
S11300400C94C1000C94C1000C94C1000C94C10028
S11300500C94C1000C94C1000C94C1000C94C10018
S11300600C94C1000C94C1000C94C1000C94C10008
S11300700C94C100B9053D0543067F0543060B05F5
S113008042044306ED042705F60521060600FF0990
S113009001A1010901150026FF00750895068102DA
S11300A00901150026FF00750895079102C0040395
S11300B00904200343005000480045003400310087
S11300C032002000550053004200200049002F0058
S11300D04F003C0353006F00750074006800650016
S11300E072006E00200041006400760065006E001E
S11300F07400690073007400200055006E006900EC
S113010076006500720073006900740079000902CA
S113011029000101008064090400000203000000BA
S113012009211101000122220007058103080000B2
S11301300705020308000012010002000000202548
S11301400960010010010200010011241FBECFEF5D
S1130150D2E0DEBFCDBF90E080E80FB6F894809384
S11301606100909361000FBE81E021E0A0E0B1E066
S113017001C01D92A431B207E1F70E9434010C942E
S1130180A2070C9400000895CF93DF9300D000D011
S113019000D0CDB7DEB782E08093E9008091E8001B
S11301A082FF32C08091F200873030F19091F100EB
S11301B0FE0131969E01295F3F4FA1EFB0E08C9183
S11301C08193E217F307D9F790FF02C0898184B9BC
S11301D091FF02C08A8187B992FF02C08B818AB9DC
S11301E093FF02C08C8185B994FF02C08D8188B9C8
S11301F095FF02C08E818BB9E8EEF0E080818B7FA1
S1130200808380818F77808326960FB6F894DEBF33
S11302100FBECDBFDF91CF91089581E08093E900B7
S11302208091E80085FF16C084B1E1EFF0E080839F
S113023087B180838AB1808383B1808386B18083D0
S113024089B18083E8EEF0E080818E7F80838081B5
S11302508F778083089580910E01882321F00E9476
S1130260C4000E940D0108950E94890790E080E86F
S11302700FB6F89480936100909361000FBE0E94C2
S11302804E0180E090E008950E9468060E94C30039
S113029008950E946B060E942B01FBCF0E9444012B
S11302A00E944901E8EDF0E080818F7780838081AE
S11302B0806880830895E8EDF0E080818062808327
S11302C082E089BD09B400FEFDCFE8EDF0E0808155
S11302D08F7D8083E0EEF0E080818E7F808380815B
S11302E08B7F80830E94BB01E2EEF0E0808181601D
S11302F0808380818860808378940895809101014F
S1130300811105C081E0809301010E945B0180910D
S113031005019091060190FF10C080910501909114
S113032006019E7F9093060180930501EAEEF0E0BA
S113033081E08083108210920E011092E900809176
S1130340E80083FD0E9427040895EBEEF0E090811D
S1130350916090838093EC00EDEEF0E080818270F8
S1130360682B60838081826080838091EE00881F87
S11303708827881F08951092E9008091EB0080FD82
S113038007C01092E90060E282E00E94A50108958E
S113039080E00895CF93DF93C9EED0E081E08883B5
S11303A060E081EC0E94A50182E0888360E080EC3B
S11303B00E94A501DF91CF91089580E00895CF9325
S11303C0DF93892BD9F4C9EED0E081E08883EBEE8A
S11303D0F0E0808180618083AAEEB0E092E09C939B
S11303E01C9280818860808398838081806180836F
S11303F084E08C931C92808188608083DF91CF910C
S11304000895833039F5613079F018F06230B9F02D
S113041023C084E080930F018EEA90E09093110151
S11304208093100181E008958CE380930F0182EDA5
S113043090E0909311018093100181E0089580E28F
S113044080930F0182EB90E090931101809310014F
S113045081E0089580E0089580E00895CF93DF93CC
S113046000D000D0CDB7DEB7E1EFF0E080818B8320
S113047080818C8382E280930F018CE890E09093DA
S11304801101809310018081898380818A83E8EE41
S1130490F0E08081877F808380910F0129813A81F8
S11304A0482F50E04217530768F48F7161E009F058
S11304B060E080910F018823C1F18091E80082FF00
S11304C005C033C020930F0160E0F3CFA8EEB0E085
S11304D041EF50E08C9180FFFDCF80910F0181119D
S11304E004C019C0915011F416C090E2E0911001BB
S11304F0F09111019F012F5F3F4F30931101209321
S113050010018491FA01808380910F0181508093BE
S11305100F018111E7CF8C918E7F8C9380910F0115
S1130520882319F08C9182FFD5CF8091E80082FF57
S113053009C0E8EEF0E080818B7F808380818F7733
S1130540808319C0613051F4E8EEF0E0808180FFCF
S1130550FDCFE8EEF0E080818E7F8083E8EEF0E06E
S1130560808182FFFDCFE8EEF0E080818B7F808385
S113057080818F7780830F900F900F900F90DF9181
S1130580CF910895E8EEF0E08081877F80838081B9
S11305908E7F8083808182FFFDCFE8EEF0E0808152
S11305A08B7F808380818F77808380818E7F80831F
S11305B00895CF93DF9300D0CDB7DEB7E1EFF0E03D
S11305C08081898380818A83E8EEF0E08081877F5F
S11305D080836093020180818E7F8083808180FF8D
S11305E0FDCF0F900F90DF91CF910895CF93DF93BC
S11305F000D000D0CDB7DEB7E1EFF0E080818B838F
S113060080818C838081898380818A83E8EEF0E015
S11306108081877F808389819A81892B39F08091B9
S113062002018093F10080818E7F8083E8EEF0E008
S1130630808182FFFDCFE8EEF0E080818B7F8083B4
S113064080818F7780830F900F900F900F90DF91B0
S1130650CF910895E8EEF0E08081877F80838081E8
S11306608E7F8083808182FFFDCF8091F10085356C
S113067079F48091F1008A3A59F48091F10085353A
S113068039F48091F1008A3A19F481E080930301EE
S1130690E8EEF0E080818B7F808380818F77808398
S11306A080818E7F8083808180FFFDCF0895CF93EA
S11306B0DF9300D000D0CDB7DEB7E1EFF0E080816A
S11306C08B8380818C8389E080930F0180E291E0A9
S11306D090931101809310018081898380818A83A2
S11306E0E8EEF0E08081877F808380910F0129818B
S11306F03A81482F50E04217530768F48F7161E044
S113070009F060E080910F018823C1F18091E80035
S113071082FF05C033C020930F0160E0F3CFA8EE41
S1130720B0E041EF50E08C9180FFFDCF80910F014C
S1130730811104C019C0915011F416C090E2E091E7
S11307401001F09111019F012F5F3F4F3093110170
S1130750209310018491FA01808380910F018150CC
S113076080930F018111E7CF8C918E7F8C938091C0
S11307700F01882319F08C9182FFD5CF8091E80076
S113078082FF09C0E8EEF0E080818B7F8083808166
S11307908F77808319C0613051F4E8EEF0E08081F6
S11307A080FFFDCFE8EEF0E080818E7F8083E8EE6D
S11307B0F0E0808182FFFDCFE8EEF0E080818B7F66
S11307C0808380818F7780830F900F900F900F909C
S11307D0DF91CF910895E1EFF0E02081908181389D
S11307E079F4663069F4913219F0923229F008C034
S11307F00E94570381E008950E942E0281E008952B
S11308008132C1F4693019F06A3071F013C092304A
S113081019F0933029F00EC00E94C20281E00895BD
S11308200E942A0381E00895692F822F0E94D90231
S113083081E00895813A39F4623039F4822F0E94BC
S1130840F60281E0089580E0089580E008950F9312
S11308501F93CF93DF9300D0CDB7DEB7E8EEF0E07F
S113086080818B7F8083E1EFF0E010810081802F15
S113087090E08C30910508F006C2FC01E65CFF4F65
S11308800C949C07103809F0FEC1E1EFF0E06081A0
S11308908081813019F0823059F014C082E1809354
S11308A00F0187E391E090931101809310010FC031
S11308B089E280930F018EE091E09093110180937F
S11308C0100105C00E940102882309F4DCC1E1EF94
S11308D0F0E0808180818081898380818A83E8EE51
S11308E0F0E08081877F808380910F0129813A81A4
S11308F0482F50E04217530770F48F7161E009F0FC
S113090060E0E8EEF0E080818F7E808380910F01CB
S113091081110DC044C020930F01E8EEF0E0808106
S11309208F7E808380910F018111C6C148C0809160
S1130930E80084FF06C033C08C9184FF06C0B7C1B1
S113094060E0A8EEB0E041EF50E08C9180FFF4CF7E
S1130950AEC1915011F416C090E2E0911001F091F3
S113096011019F012F5F3F4F30931101209310011C
S11309708491FA01808380910F01815080930F014B
S11309808111E7CF8C9184FD0AC08C918E7F8C936A
S113099080910F01882319F08C9184FFD6CF6130A8
S11309A071F48091E80084FD0AC0E8EEF0E08081F3
S11309B080FFFDCFE8EEF0E080818E7F8083E8EE5B
S11309C0F0E0808184FFFDCFE8EEF0E080818F7E4F
S11309D0808380818B7F808374C1103809F053C178
S11309E0E8EEF0E08081877F808380910E01809320
S11309F0F10080818E7F808380818F7780838081E6
S1130A0082FFFDCFE8EEF0E080818B7F80838081E0
S1130A108F77808356C1111136C18091F100E3EEC6
S1130A20F0E0908190788F77892B8083E8EEF0E076
S1130A308081877F808380818E7F8083808180FF17
S1130A40FDCFE3EEF0E08081806880833AC111112C
S1130A501AC18091F100823008F015C1E8EEF0E08F
S1130A609081977F908380930E0180818E7F808315
S1130A7080910E010E94CA0124C1112319F0123081
S1130A8021F001C18091F100FEC0E1EFF0E080812E
S1130A9090818111F8C0E091F100EF77E093E900D3
S1130AA08091EB0080FD03C01092E900ECC0EE23BE
S1130AB0B9F04BEE50E0DA018C9180618C9381E0C7
S1130AC090E00E2E02C0880F991F0A94E2F72AEED6
S1130AD030E0D9018C931C92DA018C9188608C935C
S1130AE01092E900F0E0E95FFE4F1082E8EEF0E0DA
S1130AF08081877F808380818E7F8083E2C0112301
S1130B0019F0123021F0BFC08091F100BCC0E1EFB8
S1130B10F0E0808190818111B6C0E091F100EF771F
S1130B2051F4ABEEB0E08C9180628C93A8EEB0E00F
S1130B308C91877F8C93E093E9008091EB0080FD9A
S1130B4003C01092E9009FC0ABEEB0E08C918062CC
S1130B508C931092E900F0E0E95FFE4F81E080831E
S1130B60E8EEF0E08081877F808380818E7F8083C0
S1130B70A8C0E1EFF0E080818081E081113879F054
S1130B801238A9F0103809F07EC0E8EEF0E0808158
S1130B90877F8083809104018093F10014C0E8EE84
S1130BA0F0E08081877F80831092F1000CC0A8EE72
S1130BB0B0E08C91877F8C93EF77F0E0E95FFE4F94
S1130BC080818093F1001092F100E8EEF0E08081E2
S1130BD08E7F8083808182FFFDCFE8EEF0E080810C
S1130BE08B7F808380818F7780836BC0113809F07D
S1130BF04AC0E1EFF0E08081808190819983908107
S1130C009A83811140C008EE10E0F8018081877F4B
S1130C10808389819A810E94DD018093F100D8014B
S1130C208C918E7F8C93E8EEF0E0808182FFFDCF83
S1130C30E8EEF0E080818B7F808380818F778083F2
S1130C4040C0113001F5E1EFF0E0608180819081D6
S1130C50998390819A83811116C008EE10E0F801FF
S1130C608081877F808389819A810E94DF0110922D
S1130C70E900D8018C918E7F8C93E8EEF0E08081BE
S1130C8080FFFDCF1EC0602F812F0E94EB038111D6
S1130C9018C0EBEEF0E0808180628083E8EEF0E043
S1130CA08081877F808381E0809307010AC08091DF
S1130CB00F01811151CE66CE8091E80084FF40CEB1
S1130CC07ECE0F900F90DF91CF911F910F910895D9
S1130CD00E94520108950E947E0108958823F1F034
S1130CE010921301109212012091120130911301FC
S1130CF0243F314088F420911201309113012F5F79
S1130D003F4F30931301209312012091120130912F
S1130D101301243F314078F3815011F708951F9255
S1130D200F920FB60F9211242F933F934F935F931B
S1130D306F937F938F939F93AF93BF93EF93FF939F
S1130D408091E10082FF07C08091E20082FF03C02E
S1130D508BEF8093E1008091E10080FF27C08091B8
S1130D60E20080FF23C081E080930001E1EEF0E027
S1130D708FEE8083809105019091060180629093AB
S1130D800601809305018EEF8083E2EEF0E080811E
S1130D908061808380818F7D8083E8EDF0E08081B5
S1130DA08062808389B58D7F89BD19BC8091E10003
S1130DB084FF6AC08091E20084FF66C009B400FC2D
S1130DC005C082E089BD09B400FEFDCFE8EDF0E086
S1130DD080818F7D80838FEE8093E100809100017C
S1130DE0882309F451C0E2EEF0E0808180628083C0
S1130DF08081886080838091E10084FF07C0E1EEF8
S1130E00F0E09FEE9083808184FDFCCF82E00E941D
S1130E106E068091E10082FD08C08091E10085FDAD
S1130E2004C08091E10083FF18C0E2EEF0E080810D
S1130E308F7E808380910501909106018064909358
S1130E4006018093050180818160808380818062B6
S1130E50808380818860808317C08091E10084FD55
S1130E6047C0EBEFF0E080818F7D808380818068D4
S1130E70808380818F7B808380818F738083E2EE87
S1130E80F0E080818F7E80838091E10085FF1AC02D
S1130E908091E20085FF16C010920001E2EEF0E0BE
S1130EA080818F7E80838FED8093E10080818F7DB0
S1130EB080838091050190910601806890930601DA
S1130EC0809305018091E10083FF12C08091E200CC
S1130ED083FF0EC087EF8093E1000E94BB018091E5
S1130EE0050190910601916090930601809305019C
S1130EF0FF91EF91BF91AF919F918F917F916F91EE
S1130F005F914F913F912F910F900FBE0F901F90C3
S1130F1018958FB7F89497EF94BF0FB6F894A895E7
S1130F2090916000986190936000109260000FBEF1
S1130F3088230CF478940895EE0FFF1F0590F49124
S10B0F40E02D0994F894FFCFA1
S9030000FC
